:020000040800F2
:1030000018F500202D320008C95600085951000853
:10301000C55600085F350008DF7900080000000091
:103020000000000000000000000000009F63000896
:10303000053600080000000039580008BD69000886
:10304000433200084332000843320008433200088C
:10305000433200084332000843320008433200087C
:10306000433200084332000843320008433200086C
:10307000433200084332000843320008433200085C
:10308000433200084332000843320008433200084C
:10309000433200084332000843320008433200083C
:1030A000433200084332000843320008433200082C
:1030B00043320008556B00084332000843320008D1
:1030C000433200084332000843320008433200080C
:1030D0004332000855760008217700084332000883
:1030E0005D48000843320008433200080000000039
:1030F00000000000000000000000000000000000D0
:1031000000000000000000004332000843320008C5
:103110004574000843320008433200084332000877
:1031200043320008433200084332000843320008AB
:1031300043320008E94200084332000843320008E5
:10314000433200084332000843320008433200088B
:1031500000F002F800F05AF80AA090E8000C82444F
:103160008344AAF10107DA4501D100F04FF8AFF22C
:10317000090EBAE80F0013F0010F18BFFB1A43F055
:1031800001031847D8DC0000F8DC00000A444FF0C7
:10319000000C10F8013B13F0070408BF10F8014BB6
:1031A0001D1108BF10F8015B641E05D010F8016BFB
:1031B000641E01F8016BF9D113F0080F1EBF10F85F
:1031C000014BAD1C0C1B09D16D1E58BF01F801CB82
:1031D000FAD505E014F8016B01F8016B6D1EF9D505
:1031E0009142D6D37047000000230024002500261A
:1031F000103A28BF78C1FBD8520728BF30C148BF5A
:103200000B6070471FB51FBD10B510BD00F0EDF885
:103210001146FFF7F7FF07F091FA00F00BF903B43E
:10322000FFF7F2FF03BC00F00FF900000848004769
:10323000FEE7FEE7FEE7FEE7FEE7FEE7FEE7FEE766
:10324000FEE7FEE703480449044A054B70470000C7
:103250005131000818EF002018F5002018F1002067
:1032600018F10020032A40F2308010F0030C00F027
:10327000158011F8013BBCF1020F624498BF11F8B0
:1032800001CB00F8013B38BF11F8013BA2F1040269
:1032900098BF00F801CB38BF00F8013B11F00303E1
:1032A00000F07180083AC0F0088051F8043B083AF9
:1032B00051F804CBA0E80810F5E7121D5CBF51F8E7
:1032C000043B40F8043BAFF30080D20724BF11F861
:1032D000013B11F801CB48BF11F8012B24BF00F8C6
:1032E000013B00F801CB48BF00F8012B70474FF0BD
:1032F00000020429C0F0128010F0030C00F01B80C3
:10330000CCF1040CBCF1020F18BF00F8012BA8BFD0
:1033100020F8022BA1EB0C0100F00DB85FEAC17C94
:1033200024BF00F8012B00F8012B48BF00F8012B47
:1033300070474FF0000200B5134694469646203978
:1033400022BFA0E80C50A0E80C50B1F12001BFF45E
:10335000F7AF090728BFA0E80C5048BF0CC05DF8C4
:1033600004EB890028BF40F8042B08BF704748BF12
:1033700020F8022B11F0804F18BF00F8012B704786
:1033800070477047704710B5203AC0F00B80B1E825
:103390001850203AA0E81850B1E81850A0E818508A
:1033A000BFF4F5AF5FEA027C24BFB1E81850A0E893
:1033B000185044BF18C918C0BDE810405FEA827CAD
:1033C00024BF51F8043B40F8043B08BF7047D207C4
:1033D00028BF31F8023B48BF11F8012B28BF20F865
:1033E000023B48BF00F8012B7047754600F028F8F3
:1033F000AE4605006946534620F00700854618B0E2
:1034000020B5FFF71FFFBDE820404FF000064FF04A
:1034100000074FF000084FF0000B21F00701AC4609
:10342000ACE8C009ACE8C009ACE8C009ACE8C00928
:103430008D4670470446AFF300802046FFF7EFFE4D
:1034400000487047B4EE002001491820ABBEFEE7EB
:1034500026000200704700001CB50A2000F0EAF8C0
:10346000A0208DF8000004208DF80100FF208DF8C9
:10347000020074208DF8030000208DF804002A4813
:103480000078012803D100208DF8040016E02648BA
:103490000078022803D101208DF804000EE02248B4
:1034A0000078042803D102208DF8040006E01E48AD
:1034B0000078082802D103208DF804000521684611
:1034C00003F092F88DF805000020184908700621D5
:1034D000684603F09FFFC82115480DF084F913E0FA
:1034E0001248007880B10020104908704C1CE07828
:1034F000742809D10E480DF07DF92079102801D1EA
:1035000001201CBD0020FCE709480DF065F90028EA
:10351000E6D007480DF06EF94FF48A710348FFF7C3
:10352000E6FE0020EDE7000042000020E0A20020BF
:10353000EEA3002030B501460846CC1701EB147409
:103540002411A1EB04140A46CD1701EB15752D11BA
:1035500005EB850504EB4504E3B2184630BD00BF1A
:10356000FEE7000010B50E4890F8C70010F0010FFC
:103570000BD00B4890F8C70000F0FE00084981F816
:10358000C70002F06DFB02F0F7FA06480078012848
:1035900004DD04480078401E0249087010BD000098
:1035A0004A9A00202000002010B5044644F62C4121
:1035B0000648FFF79CFE44F62C410548FFF797FEAE
:1035C0000020044908600449087010BD480100202B
:1035D000744D0020180000202400002010B50121A7
:1035E000202002F073F90348008840F008000149E8
:1035F000088010BD001400400021014A117070477E
:10360000410000207047000010B504460121074822
:1036100003F0BEFA0648046000BF054800680028B1
:10362000FBD10021014803F0B3FA10BD00040040B3
:103630002C0000204100044A116000BF02490968C3
:103640000029FBD170470000300000200F4908809E
:1036500047210E4A121F118000210C4A1C3A11808A
:103660000A4A083A118009492C39098841F00101B8
:10367000064A2C3A118000BF04491C3909880029E8
:10368000FAD00021014A1C3A118070472C140040E6
:103690002DE9F0470646B046B1461F48007801289C
:1036A00002D109F1040701E008F10307394685203A
:1036B00004F0ECFE05464DBB184C2079102821D1B2
:1036C0000A20FFF7B7FF3946842004F0DFFE0546E5
:1036D000A5B900BF607804280CDDA079C01C211DAD
:1036E000085C102806D101200D49087000200D4902
:1036F00008700EE0FF200B4908700AE0FF2009491E
:10370000087006E0FF200749087002E0FF20054925
:103710000870BDE8F087000088000020E1A20020CA
:1037200010000020410000202DE9F04105462F4601
:10373000A84612480078012802D108F1040400E0EC
:10374000FC1C00200E4908600E4908600E490870F4
:103750000E4908602146B02004F098FE0646FF2E70
:1037600006D00A480078207001200949087002E05C
:10377000FF2007490870BDE8F081000088000020A4
:10378000700000206C00002079000020180000204C
:10379000410000202DE9F04704462746A146124883
:1037A0000078012802D109F1040600E0FE1C314630
:1037B000852004F06BFE054685B9DFF8308098F867
:1037C0000400102806D10120094908700020094989
:1037D000087006E0FF200749087002E0FF20054955
:1037E0000870BDE8F087000088000020E1A20020FA
:1037F00010000020410000200021014A1170704794
:10380000410000202DE9F84F0746BB4600972948A4
:103810000078012802D10098051D01E00BF1030595
:10382000254890F800A02548007823490978401AD7
:1038300028702248008820490978401A082807DDA6
:103840001D48007808301C4908704FF008090AE04C
:103850001A48007818490978401A00F0FF091748FB
:10386000007815490870012600241DE00AEB0400C9
:10387000C0EBC00101EB40101149085C012101EBD4
:10388000400000F0FF080AEB0402C2EBC20303EBA6
:1038900042120B4BD118A8194246FFF7E3FC06EB86
:1038A0000800C6B2601CC4B24C45DFDB0548067098
:1038B000BDE8F88F88000020690000206A00002021
:1038C00048010020410000202DE9F84F0746BB4683
:1038D000009730480078012802D10098061D01E0C9
:1038E0000BF103062C4890F800A02C4800782A49D8
:1038F0000978401A30702948008827490978401A09
:10390000082807DD244800780830234908704FF064
:1039100008090AE0214800781F490978401A00F098
:10392000FF091E4800781C490870012500242AE080
:103930000AEB0400C0EBC00101EB40101849085C21
:10394000012101EB400000F0FF080AEB0402C2EB8A
:10395000C20303EB4212124BD11870194246FFF713
:1039600081FC05EB0800C5B2C4EBC40101EB4411B6
:103970000B4A114491F8260009F094FA7055681C1E
:10398000C5B2601CC4B24C45D2DB06480570BDE828
:10399000F88F000088000020690000206A000020E5
:1039A00048010020410000202DE9F05F8146CA4611
:1039B000CB4652480078012802D10BF1040401E003
:1039C0000AF1030460784E490880084600884FF6E3
:1039D000FF7101EA00204A490880A078098808435D
:1039E0004749088000204749087008460278211D91
:1039F0004548FFF737FC002044490860444890F8E8
:103A00004E00142802DAFF20207001E0012020700F
:103A10000020404908602146802004F037FD05461B
:103A2000002D66D13C4F787804285EDD78793B49DB
:103A300008600846006800020860B8790968084311
:103A4000364908600846006800284AD00520FFF77C
:103A5000F1FD0020324908602E4800682D490860B9
:103A60002146912004F012FD0546002D44D127483F
:103A700000882C49088008460088082803DD0820B3
:103A80002949087003E0274800782749087025482D
:103A9000007820704FF0010800261AE0C6EBC6003F
:103AA00000EB46102149085C012101EB4000C5B242
:103AB000C6EBC60202EB46121C4BD11804EB080001
:103AC0002A46FFF7CFFB08EB050000F0FF08701C4B
:103AD000C6B2154800788642E0DB154880F80080C1
:103AE0000AE0FF201249087006E0FF201049087024
:103AF00002E0FF200E490870BDE8F09F880000201A
:103B00007400002076000020679E0020180000202E
:103B10004A9A002084000020E1A200206C000020CE
:103B2000700000206A000020690000204801002089
:103B3000410000202DE9F05F8146CA46CB4655483A
:103B40000078012802D10BF1040401E00AF103041A
:103B5000607851490880084600884FF6FF7101EAF5
:103B600000204D490880A078098808434A49088008
:103B700000204A49087008460278211D4848FFF78E
:103B800071FB002047490860474890F84E00142810
:103B900002DAFF20207001E0012020702146802001
:103BA00004F074FC0546002D6ED1DFF8008198F812
:103BB0000100042864DD98F805003D4908600846C6
:103BC00000680002086098F8060009680843384950
:103BD00008600846006800284ED00520FFF72AFD3F
:103BE0000020344908602146912004F04FFC05462E
:103BF000002D4CD12B4800882F49088008460088AA
:103C0000082803DD08202D49087003E02A480078C1
:103C10002A4908702848007820700127002624E0EF
:103C2000C6EBC60000EB46102549085C012101EBFC
:103C30004000C5B2C6EBC60202EB4612204BD118BB
:103C4000E0192A46FFF70EFB7819C7B2C6EBC6018A
:103C500001EB46111A4A114491F8260009F022F9A5
:103C6000E055781CC7B2701CC6B214480078864272
:103C7000D6DB144807700AE0FF201249087006E0FE
:103C8000FF201049087002E0FF200E490870BDE8CF
:103C9000F09F0000880000207400002076000020C3
:103CA000679E0020180000204A9A0020E1A2002010
:103CB0006C000020700000206A00002069000020D5
:103CC00048010020410000202DE9F0470746B94691
:103CD000BA4623480078012802D10AF1040601E01F
:103CE00009F1030600201F4908701F49086031468A
:103CF000C52004F0CBFB05466DBB1C4C2079102879
:103D000025D10520FFF796FC3146C12004F0BEFB0B
:103D10000546C5B900BF6078042810DD01201449AC
:103D20000870601E8078C01E00F0FF084246211D0A
:103D30003046FFF797FA0F4880F800800EE0FF202A
:103D40000C4908700AE0FF200A49087006E0FF20CD
:103D50000849087002E0FF2006490870BDE8F087B6
:103D6000880000207600002018000020E1A200203A
:103D700010000020410000202DE9F04104462746B4
:103D800007F1030800200F4908704146C52004F0E0
:103D90007DFB0646A6B90C4D2879102810D10520C8
:103DA000FFF748FC094805F017FB4146C12004F025
:103DB0006DFB064626B906480068401C04490860A9
:103DC000BDE8F08176000020E1A20020539A002097
:103DD0001C0000200021014A1170704741000020A2
:103DE0000021014A11707047410000202DE9F04781
:103DF0008046C146C24621480078012802D10AF116
:103E0000040701E009F103073946852004F03EFB71
:103E100004466CBB1A4D2879102825D10A20FFF7DB
:103E200009FC3946812004F031FB0446C4B900BFC7
:103E30006878042810DD0120124908706878801E17
:103E4000C4B22846065DA21B111832463846FFF759
:103E500009FA0D4806700EE0FF200B4908700AE0D1
:103E6000FF200949087006E0FF200749087002E0BA
:103E7000FF2005490870BDE8F08700008800002099
:103E8000E1A2002010000020410000202DE9F043B5
:103E900089B00746B846B94642480078012802D1A1
:103EA00009F1040601E008F103063078052101EB71
:103EB0004000C5B2232D00DD23252A463146684641
:103EC000FFF7D0F93146862004F0E0FA0546002DD0
:103ED00062D1354C2079002838D16079401030709B
:103EE0006279A11D701CFFF7BDF93146C52004F0B1
:103EF000CDFA054635BB00BF207910281ED1694692
:103F0000C22004F0C3FA0546A5B900BF60780428B2
:103F10000CDDA079C01C211D085C102806D10120F1
:103F20002249087000202249087038E0FF2020490B
:103F3000087034E0FF201E49087030E0FF201C4963
:103F400008702CE0FF201A49087028E02079012829
:103F50001ED13146C22004F099FA0546A5B9124C8B
:103F6000607804280CDDA079C01C211D085C102895
:103F700006D101200D49087000200D4908700EE09F
:103F8000FF200B4908700AE0FF200949087006E08D
:103F9000FF200749087002E0FF200549087009B0BA
:103FA000BDE8F08388000020E1A20020100000207E
:103FB000410000202DE9F0470646B046B1461F48B3
:103FC0000078012802D109F1040701E008F1030794
:103FD0003946852004F05AFA05464DBB184C207925
:103FE000102821D10A20FFF725FB3946832004F051
:103FF0004DFA0546A5B900BF607804280CDDA0790C
:10400000C01C211D085C102806D101200D49087034
:1040100000200D4908700EE0FF200B4908700AE0EF
:10402000FF200949087006E0FF200749087002E0F8
:10403000FF2005490870BDE8F087000088000020D7
:10404000E1A2002010000020410000202DE9F047EF
:104050000646B046B1461F480078012802D109F152
:10406000040701E008F103073946852004F00EFA41
:1040700005464DBB184C2079102821D10A20FFF7A6
:10408000D9FA3946822004F001FA0546A5B900BFE5
:10409000607804280CDDA079C01C211D085C102864
:1040A00006D101200D49087000200D4908700EE06E
:1040B000FF200B4908700AE0FF200949087006E05C
:1040C000FF200749087002E0FF2005490870BDE89D
:1040D000F087000088000020E1A2002010000020EE
:1040E000410000200021014A11707047410000206A
:1040F00001494861704700000090024029B1064A1A
:10410000D2690243044BDA6104E0034AD269824374
:10411000014BDA61704700000090024030B107495E
:10412000896941F00201054A916105E00349896905
:1041300021F00201014A91617047000000900240A5
:1041400030B50C4613460021104D286000BF18E022
:1041500000EB01124FF00045156044F2F055556038
:10416000C1EB411505EB811504EB051595605D1E4E
:104170008D4204D900EB01151035D56000E0D06008
:10418000491C9942E4D3024DE86030BD280100206B
:104190000090024021B1426822F00042426003E0F8
:1041A000426842F0004242607047000030B1074967
:1041B000896941F40051054A916105E00349896923
:1041C00021F40051014A91617047000000900240C3
:1041D00030B50C46134600210F4D286000BF15E096
:1041E00000EB01124FF480151560C1EB411505EB92
:1041F000811504EB051595605D1E8D4204D900EB19
:1042000001151035D56000E0D060491C9942E7D314
:10421000024D286130BD00002401002000900240C2
:1042200002680A430260704710B50121880301F05B
:104230003DFB00214FF4804001F038FB10BD01B57B
:1042400081B0002000900198009002E00098401E8C
:10425000009000980028F9D10CBD00000348806947
:1042600040F48010014988617047000000900240CE
:1042700001480068806870472401002001460868F2
:10428000C0F30D407047000000B500220F480068E1
:10429000006810F0004F16D10C480068008810F438
:1042A000004F10D109480068008810F4807F0AD0C0
:1042B00006480068008810F4007F04D003480068B6
:1042C000FFF7DCFF0246104600BD00002801002079
:1042D00000200449096811F0010F01D0012000E01D
:1042E000002070470090024010B501E001F02CF969
:1042F000FFF7CAFF0028F9D14020FFF7F9FE4FF47D
:104300008030FFF7F5FE10BD2DE9F04188B004467E
:104310000F464FF00008002500200790804E0190C6
:104320008048056925F01C0502A801F00FFB039EDB
:104330007D48864205D37D48864202D245F0080575
:1043400009E07A48864205D37548864202D245F094
:104350000C0500E000BF734805614FF400420021E6
:10436000384600F04BFA7248FFF769FF20680028D2
:104370003FD000BF0198401C01900121384600F059
:104380001DF910F0040F02D10198FF28F2D300BFED
:10439000002001904FF480520021384600F02EFAA0
:1043A00000BF0198401C01900121384600F006F939
:1043B00010F0200F02D10198FF28F2D300BF002097
:1043C00001901021384600F0F9F8804618F0040FEB
:1043D00003D04FF40060206201E00020206218F05A
:1043E000020F02D00020606113E04FF48040606152
:1043F0000FE0206AC0F3CF006169C1F34F0140EACA
:1044000001020021384600F0F9F96FF07F40FFF714
:1044100016FF4448056847480540D4E901010843B0
:10442000E16808432169084361690843A1690843B9
:10443000E1690843216A0843616A0843A16A0843A5
:10444000E16A0843216B0843616B08430543354823
:104450000560D4E90E010843216C0843616C0843F0
:10446000A16C0843E16C0843216D0843616D08436A
:104470002C494860A06D8860E06DC8600846856979
:104480004FF641700540B4F86010606E40EA01409C
:10449000A16E0843E16E0843216F0843616F084332
:1044A000054320488561D4E91E0108431D49C861C0
:1044B0002148856921480540D4E920010843D4F802
:1044C00088100843D4F88C100843D4F8901008439F
:1044D000D4F894100843D4F898100843D4F89C10EA
:1044E0000843D4F8A0100843054313488561D4E974
:1044F00029010843D4F8AC100843D4F8B01008439D
:10450000D4F8B41040EA8100D4F8B810084340F45D
:10451000000009490860012008B0BDE8F0810000F2
:104520000087930300800240002D3101C00E160267
:10453000FFFF0F000F8120FF00900240233FDEF8B5
:1045400010B50B794C7943EA0422094B03441A64F1
:10455000CB781B068C7843EA04434C7843EA042367
:104560000C7843EA0402024B03445A6410BD000075
:104570000080024030B10749096841F00401054A52
:10458000116005E00349096821F00401014A116046
:10459000704700000080024030B10749096841F0CF
:1045A0000801054A116005E00349096821F0080186
:1045B000014A1160704700000080024008B50246C1
:1045C0000B460021002000901448016901F01C01F5
:1045D0004FF4784000EAC22001434FF4F86000EA4B
:1045E0008310014321F0020141F001010B480161F8
:1045F00000BF0098401C00900848016911F0010FAD
:1046000002D00098FF28F4D30098FF2801D10020A1
:1046100008BD0248406980B2FAE70000008002400D
:104620001EB500210022009201920292214A1268D6
:10463000126812F0004F10D0002200921E4A5269F8
:1046400012F0800F04D080221B4B5A6100229A6026
:104650009DE81C0080E81C001EBD164A12681288E6
:1046600012F4004F16D1134A1268128812F4807F98
:1046700010D0104A1268128812F4007F0AD00D4A36
:1046800012681268C2F30D42111F0A4A126892683A
:10469000019200E000210091064A12680292054A48
:1046A0001268D268034B1A609DE81C0080E81C0069
:1046B00000BFD1E7280100200090024003480068B5
:1046C00040F001000149086070470000009002407E
:1046D00000B50120FFF760FFFFF7C0FD0120FFF7E5
:1046E00049FF0120FFF762FD0120FFF717FD00BD24
:1046F0000021016041608160C160016141618161AF
:10470000C161016241628162C1620163416381638F
:10471000C163402101642021416400218164C1649E
:10472000016541658165C1650166802141660021A1
:104730008166C166016741678167C1674FF080612B
:10474000C0F880104910C0F884104910C0F88810D3
:10475000C910C0F88C100021C0F89010C0F8941057
:10476000C0F89810C0F89C10C0F8A0104FF000716D
:10477000C0F8A4100021C0F8A8104FF40031C0F810
:10478000AC104912C0F8B0100021C0F8B410C0F845
:10479000B8107047014617480068006810F0004FD5
:1047A00001D000207047C1F30C00124A126850601B
:1047B00010480068006840F040500E4A12681060CF
:1047C0000C480068006840F000400A4A1268106017
:1047D0000948406910F0040F04D00420064A5061D3
:1047E0000020506003480068C068024A1060012041
:1047F000D8E70000240100200090024018B50346CD
:104800000C460021002000901348016901F01C01B2
:104810004FF4784000EAC32001434FF4F86000EA07
:104820008410014341F0020141F001010A48426154
:10483000016100BF0098401C00900748016911F019
:10484000010F02D00098FF28F4D30098FF2801D16F
:10485000002018BD0120FCE70080024070470000E6
:104860000021014A117070474100002000B5AFB02F
:10487000012000F0F1F94FF4004001F059F9012056
:1048800001F050F900BF3D2001F028F90028FAD0CE
:104890000B2001F041F9FFF7C7FCFFF70FFF00BF46
:1048A000FFF716FD0128FBD06846FFF721FF012026
:1048B0000090002007904FF400700A9000200B90A9
:1048C0000E90119013901490159020904FF000705E
:1048D00021900011239000202590269004202890FC
:1048E000C005299040122A9080012B9040122C90F4
:1048F00040002E9001216846FFF706FD0121024885
:10490000FFF7FCFB2FB000BD4000010070B505466D
:10491000042440F6FF7000F073F80446042C19D10B
:104920000D48006940F002000B49086108464561E6
:10493000006940F04000086140F6FF7000F060F848
:104940000446052C06D00448006941F6FD71084074
:1049500001490861204670BD0020024004200B4937
:10496000C96811F0010F01D001200EE00749C968A4
:1049700011F0040F01D0022007E00449C96811F0CA
:10498000100F01D0032000E00420704700200240F7
:104990000348006940F08000014908617047000049
:1049A0000020024070B505460E4604240F2000F09A
:1049B00027F80446042C13D10A48006940F001008E
:1049C000084908612E800F2000F01AF80446052CD3
:1049D00006D00448006941F6FE71084001490861AB
:1049E000204670BD00200240024803494860034849
:1049F000486070472301674500200240AB89EFCD36
:104A000070B504460425FFF7A9FF054605E003F04D
:104A100025FDFFF7A3FF0546641E012D01D1002CE3
:104A2000F5D104B90525284670BD000008B504205D
:104A3000ADF8000003208DF8020018208DF8030067
:104A40006946804800F00EF90220ADF8000003200E
:104A50008DF8020018208DF8030069467A4800F0AE
:104A600001F94FF46050ADF8000003208DF802000A
:104A700018208DF803006946744800F0F3F801210E
:104A80004FF0201000F078F90220ADF8000003206C
:104A90008DF8020004208DF803006946694800F093
:104AA000E1F84FF4E060ADF8000003208DF802005B
:104AB00004208DF803006946654800F0D3F8012111
:104AC000082000F059F94020ADF8000004208DF8CE
:104AD000030069465E4800F0C5F82020ADF80000EC
:104AE00003208DF8020018208DF80300694658480D
:104AF00000F0B8F84FF48060ADF8000004208DF8A5
:104B0000030069464F4800F0ADF84FF40070ADF86F
:104B1000000003208DF8020018208DF8030069467C
:104B2000484800F09FF81020ADF800008DF8030011
:104B30006946474800F096F81021454800F05DF9B5
:104B40004FF40060ADF8000004208DF803006946C2
:104B50003D4800F087F84FF48060ADF80000182061
:104B60008DF803006946384800F07CF84FF4F840AF
:104B7000ADF8000010208DF803006946354800F0BC
:104B800071F84FF48051334800F037F94FF4005179
:104B9000304800F032F94FF480412E4800F02DF9F2
:104BA0004FF400612B4800F028F94FF48061294848
:104BB00000F023F90C20ADF8000010208DF8030060
:104BC0006946244800F04EF80821224800F017F901
:104BD0000421204800F013F9C020ADF800001C208B
:104BE0008DF803006946194800F03CF84FF48060E6
:104BF000ADF8000010208DF803006946134800F05E
:104C000031F84FF48070ADF8000010208DF80300EB
:104C10006946104800F026F84FF480610B4800F018
:104C2000ECF84FF480710B4800F0E7F84FF40240C5
:104C3000ADF8000028208DF803006946054800F013
:104C400011F808BD0008014000100140000C0140AF
:104C5000001401400018014001490860704700003D
:104C6000DC0020422DE9F04102460025002600200C
:104C700000230024002791F803C00CF00F0591F8E1
:104C800003C01CF0100F03D091F802C04CEA0505D8
:104C900091F800C0BCF1000F31D0146800202BE067
:104CA0004FF0010C0CFA00F3B1F800C00CEA030657
:104CB0009E4220D183004FF00F0C0CFA03F7BC4347
:104CC00005FA03FC4CEA040491F803C0BCF1280F78
:104CD00006D14FF0010C0CFA00FCC2F814C00AE037
:104CE00091F803C0BCF1480F05D14FF0010C0CFA4C
:104CF00000FCC2F810C0401C0828D1D31460B1F8E1
:104D000000C0BCF1FF0F34DD546800202EE000F13C
:104D1000080C4FF0010808FA0CF3B1F800C00CEAD7
:104D200003069E4221D183004FF00F0C0CFA03F7CB
:104D3000BC4305FA03FC4CEA040491F803C0BCF13F
:104D4000280F05D100F1080C08FA0CF8C2F81480FD
:104D500091F803C0BCF1480F07D100F1080C4FF0E7
:104D6000010808FA0CF8C2F81080401C0828CED3BD
:104D70005460BDE8F0810000F0B50A46002300242D
:104D800000210025174E7168C0F3034583B200F47B
:104D90004016B6F5401F08D121F07061114E7668BB
:104DA00026F070660F4F7E6012E000F48016B6F5B4
:104DB000801F06D1032606FA05F4A14341F0706175
:104DC00006E0460D360103FA06F6B14341F0706184
:104DD00022B1460D360103FA06F63143014E7160E9
:104DE000F0BD0000000001400246002093680B4225
:104DF00001D0012000E0002070474161704701614F
:104E0000704770477047000010B504464FF40041EA
:104E10000348FFF7E9FF034981F8320010BD0000A5
:104E2000001801404A9A002010B50446014804F0D9
:104E3000D3FA10BD539A00202DE9F0410646002513
:104E4000B94804F0C9FA1120B8490870B848007888
:104E5000B8490978401A07287EDD0820B64908704D
:104E600000249EE0B0480938417AB04800781038F4
:104E7000B14A1154AC480938817AAC4800780F38EF
:104E80001154A9480938C17AA84800780E3811543D
:104E9000A5480938017BA54800780D381154A2486F
:104EA0000938417BA14800780C3811549E480938D4
:104EB000817B9E4800780B3811549B480938417A11
:104EC0009A4800780A38115497480938817A9748E7
:104ED00000780938115494480938C17A9348007809
:104EE0000838115490480938017B90480078C01F59
:104EF00011548D480938417B8C480078801F11542B
:104F000089480938817B89480078401F1154002165
:104F100086480078001F115484480078C01E115440
:104F20008148093890F8961080480078801E115406
:104F30007D48093890F84F107C480078401E115485
:104F40007C4B1B78C3EBC30707EB43137B4FFB5C26
:104F50005B005A1C774B00E027E01B78C3EBC307CC
:104F600007EB4313754FD919734B704F3F78D8191E
:104F7000FEF778F96F480078C0EBC00101EB4010F4
:104F80006E49085C4000401C68490978451805F1E5
:104F900010006649087067480078401C6549087031
:104FA000641C082CFFF65EAFBCE0614800786149E4
:104FB0000978401A00287DDD5D4800785D49097850
:104FC000401A5D49087000249EE057480938417A2C
:104FD000564800781038584A115453480938817A95
:104FE000524800780F3811544F480938C17A4F4859
:104FF00000780E3811544C480938017B4B48007832
:105000000D38115448480938417B484800780C381D
:10501000115445480938817B444800780B381154B5
:1050200041480938417A414800780A3811543E48CD
:105030000938817A3D480078093811543A480938CE
:10504000C17A3A4800780838115437480938017B4A
:1050500036480078C01F115433480938417B334823
:105060000078801F115430480938817B2F48007820
:10507000401F115400212D480078001F11542B4867
:105080000078C01E11542848093890F89610274817
:105090000078801E11542448093890F84F10234896
:1050A0000078401E1154234B1B78C3EBC30707EB5A
:1050B000431300E031E0214FFB5C5B005A1C1D4BA9
:1050C0001B78C3EBC30707EB43131C4FD9191A4BCB
:1050D000164F3F78D819FEF7C5F816480078C0EB90
:1050E000C00101EB40101549085C4000401C0F490D
:1050F0000978451805F110000C4908700D48007832
:10510000401C0C490870641C0B480078A0423FF713
:105110005CAF00200749087004E0002006490870D1
:1051200004490870BDE8F081539A00204100002036
:1051300024000020120000201C9B002048010020B9
:1051400001460A2291FBF2F302FB131391FBF2F2E8
:1051500003EB0212D0B2704700BFFEE74CF6CC4022
:105160000149086070470000003000404AF6AA205C
:105170000149086070470000003000400149486064
:10518000704700000030004001498860704700000F
:1051900000300040014908607047000000300040C6
:1051A000704700002DE9F05F8046C246C3462248A2
:1051B0000078012802D10BF1040501E00AF1030592
:1051C0001E4800881E490978401A082806DD1C4838
:1051D000007808301A490870082709E01748007855
:1051E00017490978401AC7B2144800781449087062
:1051F0002F700126002419E0C4EBC40000EB44101A
:105200001049085C012101EB400000F0FF09C4EBEC
:10521000C40202EB44120B4BD118A8194A46FEF700
:1052200021F806EB0900C6B2601CC4B2BC42E3DB45
:1052300005480670BDE8F09F880000206A00002045
:105240006900002048010020410000202DE9F047BE
:105250008046C146C24631480078012802D10AF191
:10526000040401E009F1030400202D4908602D49E0
:10527000086020782C49087060782C490870A07864
:105280002B4908702B48D4F803100160D4F807109C
:1052900041600020284908602146B02003F0F6F85C
:1052A0000546FF2D34D0244800882449088008464C
:1052B0000088082803DD08202149087003E01F4802
:1052C00000781F4908701E480078207001270026CA
:1052D00017E0C6EBC60000EB46101A49085C012136
:1052E00001EB4000C5B2C6EBC60202EB4612154BFD
:1052F000D118E0192A46FDF7B5FF7819C7B2701C1E
:10530000C6B20F4800788642E3DB0F48077002E020
:10531000FF200D490870BDE8F087000088000020DC
:10532000700000206C000020770000207800002032
:10533000790000207A000020180000206A00002078
:1053400069000020480100204100002010B51B48E2
:105350000BF042FA20B14FF487711948FDF7C7FFEF
:105360001748007838B31648D0F80401042804D34D
:105370001348D0F80401FF2805D94FF4877110486D
:10538000FDF7B5FF10BD00200D4908700846D0F8A4
:105390000421411C002006F097FCFF280BD0084890
:1053A0008078801C0649C1F804010846D0F8041131
:1053B000401C00F0C9FB00BFE4E70000549D002042
:1053C0004C9C002010B51B480BF006FA20B14FF49E
:1053D00087711948FDF78BFF1748007838B31648D6
:1053E000D0F80401042804D31348D0F80401FF289E
:1053F00005D94FF487711048FDF779FF10BD0020E3
:105400000D4908700846D0F80421411C012006F01F
:105410005BFCFF280BD008488078801C0649C1F847
:1054200004010846D0F80411401C00F0F1FB00BF55
:10543000E4E70000DAA20020D2A1002000B587B086
:1054400005F012FA05F094FB2C4991F853100A0666
:105450002A4991F8541042EA0142284991F855101E
:1054600042EA0121254A92F8562041EA020004F05E
:1054700005F80690214991F859100A061F4991F83C
:105480005A1042EA01421D4991F85B1042EA01219B
:105490001A4A92F85C2041EA020003F0EFFF0590FF
:1054A000164991F85D100A06144991F85E1042EA17
:1054B0000142124991F85F1042EA01210F4A92F825
:1054C000602041EA020003F0D9FF04900B486130EC
:1054D00001F05EFA0A480B49002204ABCDE9002135
:1054E000029005AA06A9084805F092FB064805F0B7
:1054F000DDFB054805F028FC07B000BD4A9A0020F6
:10550000B19000081D9100081C9C002001B50C49B9
:1055100000980968401AFA2804D3094900980860DD
:105520000BF0B0F8074900980968401A41F2883139
:10553000884204D303490098086003F069FD08BD60
:105540004C0000205000002010B5024803F00CFE73
:1055500010BD00001C9C002010B503462D480078AB
:1055600008B9012010BD0021002249E02A48007836
:10557000814244DBC2F107040120A040254C24787D
:10558000204238D02548007830B101280CD00228BC
:1055900012D003282ED11EE0585C214CA45CA042FE
:1055A00001D00020DEE725E0585C1D4CA45CA04241
:1055B00001D00120D6E71DE0585C194CA45CA04244
:1055C00001DA0020CEE7585C154CA45CA04201DD56
:1055D0000120C7E70EE0585C114CA45CA04201DD3D
:1055E0000020BFE7585C0E4CA45CA04201DA012009
:1055F000B8E700BF00BF521C072A00DD02E0491CCB
:105600000829B3DB00BF0548007808B90120A9E7E5
:105610000020A7E779000020780000207700002014
:105620007A0000202DE9F04384462348007810B921
:105630000120BDE8F08321480088DFF87C8098F8DD
:10564000008000EB0807B7EBC10F00DDCF001B485F
:105650000088B0EBC10F01DB0020EAE70022002345
:1056600000250024002622E014480088824218DB2E
:105670001CF80500C3F1070840FA08F000F0010823
:105680000F48805DC4F1070940FA09F000F00100FD
:10569000804501D00020CCE7641C072C01DD761C7E
:1056A00000245B1C072B01DD6D1C0023521CBA4239
:1056B000DADB0120BDE70000760000207400002046
:1056C000679E002000BFFEE7704708B54FF44051C9
:1056D0004FF0006000F0A6F84FF4A06000F084F8EE
:1056E0003D208DF8000003208DF8010000208DF88A
:1056F000020001208DF80300684600F03BF83420DA
:105700008DF8000002208DF8010000208DF80200C5
:1057100001208DF80300684600F02CF81D208DF85C
:10572000000002208DF8010001208DF802008DF8A4
:105730000300684600F01EF826208DF800000020C7
:105740008DF801008DF8020001208DF803006846F5
:1057500000F010F825208DF8000001208DF80100E0
:1057600000208DF8020001208DF80300684600F04B
:1057700001F808BD70B5002100230F22C4780CB3D6
:10578000164C246804F4E064C4F5E064210AC1F115
:105790000403CA40447804FA03F184781440214396
:1057A00009010F4C0678A155047804F01F05012467
:1057B000AC4005786D114FF0E02606EB8505C5F885
:1057C000004109E0047804F01F050124AC40054DB8
:1057D0000678761145F8264070BD00000CED00E01B
:1057E00000E400E080E100E002490143024A116068
:1057F000704700000000FA050CED00E010B500282D
:1058000007DA0A07140E054A00F00F031B1FD454D1
:1058100003E00A07130E024A135410BD18ED00E00E
:1058200000E400E0024A0A400243024B1A6070475B
:1058300080FFFF1F08ED00E0704700001FB54FF428
:105840008A711048FDF753FD4FF4E13000900020BD
:10585000ADF80400ADF80600ADF80800ADF80C0096
:105860000C20ADF80A006946074802F01BF8012237
:1058700040F22551044801F0EFFF0121024801F0F8
:10588000B5FF1FBDE0A20020004C004029B1064A30
:1058900052690243044B5A6104E0034A526982434D
:1058A000014B5A61704700000010024029B1064ABE
:1058B000926A0243044B9A6204E0034A926A82436A
:1058C000014B9A62704700000010024029B1064A5D
:1058D000D2690243044BDA6104E0034AD26982438D
:1058E000014BDA61704700000010024029B1064AFE
:1058F00012690243044B1A6104E0034A12698243AD
:10590000014B1A61704700000010024029B1064A9D
:1059100092690243044B9A6104E0034A926982430C
:10592000014B9A61704700000010024029B1064AFD
:10593000D2680243044BDA6004E0034AD26882432F
:10594000014BDA6070470000001002402DE9F04181
:1059500000210022002500230026002400278C4679
:10596000DFF86081D8F8048008F00C0121B1042927
:1059700007D0082959D109E0DFF84C81C0F8008030
:1059800058E0DFF84881C0F8008053E0DFF8348148
:10599000D8F8048008F47012DFF82881D8F8048061
:1059A00008F48035920C0D2A01D0921C00E00622EA
:1059B00035B9DFF81C8102FB08F8C0F8008033E03D
:1059C000DFF80081D8F82C8008F48036DFF8F48006
:1059D000D8F82C8008F00F0808F1010446B9DFF868
:1059E000EC80B8FBF4F808FB02F8C0F800801BE07C
:1059F000DFF8D080D8F82C80C8F3031808F101072D
:105A0000DFF8C080D8F82C80C8F3032808F1020C16
:105A1000DFF8B880B8FBF7F808FB0CF8B8FBF4F82F
:105A200008FB02F8C0F8008004E0DFF89C80C0F8B2
:105A3000008000BF00BFDFF88C80D8F8048008F039
:105A4000F0010909DFF88C8018F80130D0F80080E7
:105A500028FA03F8C0F80480DFF86880D8F80480DA
:105A600008F4E061090ADFF86C8018F80130D0F81A
:105A7000048028FA03F8C0F80880DFF84880D8F8D6
:105A8000048008F46051C90ADFF8488018F8013032
:105A9000D0F8048028FA03F8C0F80C80DFF82480DE
:105AA000D8F8048008F44041890BDFF82C8018F8FE
:105AB0000130D0F80C80B8FBF3F8C0F81080BDE8D6
:105AC000F08100000010024000127A0040787D0151
:105AD00000093D00340100204401002010B50146BA
:105AE0000022002300204A11012A02D1094C236818
:105AF00006E0022A02D1074C236A01E0054C636AE2
:105B000001F01F02012494401C4201D0012000E05A
:105B1000002010BD001002400149C871704700000C
:105B2000001002400149086770470000000042422F
:105B300001460020034AD06A20F470400843D06236
:105B40007047000000100240FF2900D370470AE0B0
:105B500000BF084A128812F0800FFAD010F8012B0B
:105B6000044B1B1D1A800A00A1F10101F0D100BFF6
:105B7000ECE70000004400401FB5214890F84700C2
:105B8000001F052813D2DFE800F00306090C0F0000
:105B90004FF4165411E04FF496440EE04FF41644BF
:105BA0000BE04FF4614408E04FF4E13405E04FF4BA
:105BB000E13403201349086000BF00BF4FF4877130
:105BC0001148FDF794FB00940020ADF80400ADF8F7
:105BD0000600ADF80800ADF80C000C20ADF80A0086
:105BE00069460A4801F05EFE012240F2255107484D
:105BF00001F032FE0121054801F0F8FD1FBD000053
:105C00004A9A0020140000204C9C002000440040D0
:105C100070B504460D4610210F48FFF7F0F8FF2D30
:105C200000D370BD0AE000BF0C48008810F0800F60
:105C3000FAD014F8010B0949091D08802800A5F1C4
:105C40000105F0D11420FDF7F5FC10210248FFF703
:105C5000D4F800BFE5E7000000140140003801401F
:105C60001FB5214890F84700001F052813D2DFE830
:105C700000F00306090C0F004FF4165411E04FF426
:105C800096440EE04FF416440BE04FF4614408E0F4
:105C90004FF4E13405E04FF4E13403201349086088
:105CA00000BF00BF4FF487711148FDF720FB00943F
:105CB0000020ADF80400ADF80600ADF80800ADF81E
:105CC0000C000C20ADF80A0069460A4801F0EAFD14
:105CD000012240F22551074801F0BEFD012105488F
:105CE00001F084FD1FBD00004A9A0020140000202E
:105CF000D2A100200038014010B5FDF76FFC002450
:105D00000DE00120A04010F0400F05D10C480078B4
:105D1000401C0B49087000E003E0601CC4B2082C72
:105D2000EFDB00BF064800788006000E04490870CB
:105D300007F002F907F0D2F8002007F07BFF10BD52
:105D40008B0000202DE9F0470746B846B9461548B4
:105D50000078012802D109F1040601E008F10306E8
:105D60003146B12002F092FB0446ACB90E4D687882
:105D700004280DDD01200D4908706878001FC4B2A9
:105D80002246691D3046FDF76DFA0948047006E0A9
:105D9000FF200749087002E0FF2005490870BDE8B0
:105DA000F087000088000020E1A200201000002001
:105DB000410000202DE9F04389B00746B846B946B6
:105DC00043480078012802D109F1040601E008F1F6
:105DD00003063078052101EB4000C5B2232D00DD1C
:105DE00023252A4631466846FDF73CFA314686208F
:105DF00002F04CFB0546002D63D1364C207900287B
:105E00003AD12079002837DD60794010307062790E
:105E1000A11D701CFDF726FA3146C52002F036FBA5
:105E200005462DBB00BF207910281DD16946C12031
:105E300002F02CFB05469DB900BF607804280BDDFD
:105E4000012025490870A27A04F10B013046FDF7C4
:105E500009FA2248057037E0FF202049087033E036
:105E6000FF201E4908702FE0FF201C4908702BE01E
:105E7000FF201A49087027E0207901281DD13146FA
:105E8000C12002F003FB05469DB9124C607804283E
:105E90000BDD012010490870A27A04F10B01304695
:105EA000FDF7E0F90D4805700EE0FF200B49087082
:105EB0000AE0FF200949087006E0FF200749087042
:105EC00002E0FF200549087009B0BDE8F08300003A
:105ED00088000020E1A200201000002041000020E6
:105EE0000EB50949096800910749091D0968019122
:105EF00005490831096802910099016001994160E2
:105F0000029981600EBD0000E8F7FF1F2DE9F04700
:105F10008046C146C24629480078012802D10AF1CC
:105F2000040601E009F1030600202549086025491F
:105F3000086025490870254908603146B02002F004
:105F4000A5FA0446FF2C34D0204800882049088058
:105F500008460088082803DD08201E49087003E071
:105F60001B4800781B4908701948007830700127D9
:105F7000002517E0C5EBC50000EB45101649085C8D
:105F8000012101EB4000C4B2C5EBC50202EB451292
:105F9000114BD118F0192246FDF764F93819C7B230
:105FA000681CC5B20B4800788542E3DB0B480770DC
:105FB00002E0FF2009490870BDE8F0878800002052
:105FC000700000206C0000207900002018000020E4
:105FD0006A000020690000204801002041000020E4
:105FE00010B500240CE069221749184800F03AF96E
:105FF000154800681649884200D103E0601CC4B20D
:10600000052CF0DB00BF104800681149884212D00F
:1060100002F076F800F0C4F900200B490860022273
:106020000A4800F01FF9084800680949884202D070
:1060300002200849086008488178034881710648B1
:10604000C1780148C17110BD4A9A002000F80308C8
:10605000225A5A5A140000200400002070B5054648
:1060600000240CE069220C490C4800F0FBF80A48B7
:1060700000680B49884200D103E0601CC4B2052CC3
:10608000F0DB00BF07488178034881710548C1787B
:106090000148C17170BD00004A9A002000F8030851
:1060A000225A5A5A0400002070470000F0B585B00B
:1060B0000546002400BF05E03348005D0DF80400EC
:1060C000601CC4B20A2CF7DB2F483D3890F8610001
:1060D0008DF80C002C483D3890F862008DF80D00CA
:1060E00029483D3890F863008DF80E0026483D3869
:1060F00090F864008DF80F0023483D3890F8650053
:106100008DF8100020483D3890F866008DF8110099
:106110001D4E0A3606F12007202239463046FDF78B
:10612000A1F840364037202239463046FDF79AF82C
:106130009DF80C10A6F1870080F861109DF80D10F5
:1061400080F862109DF80E1080F863109DF80F1013
:1061500080F864109DF8101080F865109DF81110FB
:1061600080F86610002405E01DF80410064801556B
:10617000601CC4B20A2CF7DB00F012F9284600F0CC
:1061800039F805B0F0BD0000879A00202DE9F047EE
:106190000646B046B14613480078012802D109F1FD
:1061A000040401E008F103042146B42002F06EF972
:1061B000074697B90C4D6878042808DD01200B4983
:1061C00008706879207001200949087008E00120F2
:1061D000074908702879207002E0FF200449087000
:1061E000BDE8F08788000020E1A200201000002018
:1061F000410000200221014A117070472000002058
:1062000010B51448007820B313480068401C1249A8
:10621000086008460068B0F5C87F0AD24FF4806174
:106220000E48FEF7ECFD4FF480710D48FEF7E7FDD8
:106230000FE00020074908704FF480610748FEF71F
:10624000DCFD4FF480710648FEF7D7FD00200249BF
:10625000086010BD6000002064000020000C0140B8
:10626000001801402DE9F04107460D46164600246E
:1062700007E0384600F009F825F81400BF1C601C40
:1062800084B2B442F5DBBDE8F0810146088870476E
:106290002DE9F05F80468A461746B8F1006F02D3B9
:1062A0003348804501D3BDE8F09FFEF79DFBA8F180
:1062B000006B4FEADB25CBF34909C9F58064A7429F
:1062C00000DC3C464DE04FF0006101EBC5204A1474
:1062D0002849FFF7C7FF00260BE009EB0600254918
:1062E00031F81000A0F57F41FF3900D003E0701CA9
:1062F00086B2A642F1DB00BFA6421BDA4FF0006176
:1063000001EBC520FEF702FB002608E03AF8160074
:1063100006EB0901174A22F81100701C86B2A6424A
:10632000F4DB4FF0006101EBC5204A14114900F085
:1063300023F804E022465146404600F01DF8A742EB
:1063400000D10FE06D1C4FF000090AEB440AA04495
:10635000381B87B2B7F5806F02DD4FF4806400E030
:106360003C46B0E700BFFEF713FB00BF9BE7000011
:1063700000000808F4A300202DE9F04105460E4670
:106380001746002407E036F814102846FEF70AFBEB
:10639000AD1C601C84B2BC42F5DBBDE8F0817047E7
:1063A00010B504480449086069220448FFF770FFEB
:1063B00010BD0000225A5A5A4A9A002000F80308D9
:1063C0001CB500200190A0205049487006214F487C
:1063D0008170FF21C170782101714D4890F837100C
:1063E0004A484171002049490870494890F83700EF
:1063F000042815DA464890F8491044488171444809
:1064000090F84A104148C1710721401C00F0ECF897
:106410003E49087208213D48401C00F0FBFF4CE05B
:106420003B4890F83700042847D10921374881704C
:10643000374890F8381035488171354890F84A103F
:1064400090F84900081AC1B23048C171304890F83C
:106450003A008DF800002E4890F83B008DF80100BE
:106460002B4890F83C008DF80200BDF80000ADF814
:1064700004009DF802008DF80600254890F84910A8
:1064800090F83800019A01FB0020019001980090DB
:106490009DF802101D4801729DF8011041729DF88F
:1064A000001081720A21401C00F09EF81749C87242
:1064B0000B211648401C00F0ADFFC82115480AF01A
:1064C00092F911E01148007870B100200F4908706E
:1064D0004C1CE078782807D10E480AF08BF9207917
:1064E000102800D11CBD04E00A480AF075F9002804
:1064F000E8D000BF07480AF07DF908200649086087
:1065000000200249087000BFECE70000E0A2002074
:106510004A9A0020EEA300201400002010B50024A9
:106520001AE004210F48FEF768FC4FF480510D4833
:10653000FEF765FC4FF4E170FDF77CF80421094893
:10654000FEF75DFC4FF480510648FEF756FC4FF411
:10655000E170FDF76FF8641C034800688442E0DBDB
:1065600010BD000000180140140000202DE9F04784
:1065700004462746A14612480078012802D109F1B5
:10658000040600E0FE1C0A20FDF754F83146742092
:1065900001F07CFF05466DB9DFF8288098F804000B
:1065A000102803D100200849087006E000200649A1
:1065B000087002E0FF2004490870BDE8F087000081
:1065C00088000020E1A20020410000207047000068
:1065D000044991F8C71041F00101024A82F8C7103E
:1065E000704700004A9A002010B502460B46002072
:1065F000002103E0545C0444E0B2491C9942F9D301
:10660000C443641CE0B210BD30B502460346114CD1
:106610002478012C01D1191D00E0D11C0E4C0D680D
:1066200025608D88A580373C94F83740042C09DA22
:10663000094C373C94F8395084F84A5094F8385053
:1066400084F849500024054D2C700124044DC5F8F0
:10665000484330BD88000020819A0020410000207E
:10666000869E00202DE9F04705462F46A94614488E
:106670000078012802D109F1040400E0FC1C114853
:1066800090F8490020700F4890F84A006070214649
:10669000782001F0FBFE06466EB9DFF82C8098F8F2
:1066A0000400102803D100200849087006E0FF20EC
:1066B0000649087002E0FF2004490870BDE8F08731
:1066C000880000204A9A0020E1A20020410000201A
:1066D0002DE9F04705462F46A9461A4800780128BB
:1066E00002D109F1040400E0FC1C2078142802DA2D
:1066F0001420207004E02078212801DD2120207062
:106700002178114880F848102146762001F0BEFE1D
:1067100006468EB9DFF8348098F80400102807D1B7
:1067200000200B49087001200A49C1F8480306E01F
:10673000FF200749087002E0FF2005490870BDE806
:10674000F0870000880000204A9A0020E1A2002083
:1067500041000020869E00207047704770477047B8
:1067600010B50446014807F003FA10BD539A002003
:1067700000B503461E4890F84C0050B901211C4852
:1067800080F84C101B480AF035F81B480AF032F824
:106790002DE0174890F84C00012828D1002114481A
:1067A00080F84C101548017812480AF01CF810487F
:1067B00090F88E00032804D00D4890F88E0004282D
:1067C00004D164210C480AF00EF808E0084890F85B
:1067D0009300642200FB02F107480AF004F800204D
:1067E00007490860024890F896000649087000BD05
:1067F0004A9A0020350000203B0000203400002091
:10680000180000204200002010B504461048007A0D
:1068100010F0010F05D04FF480610E48FEF7EFFA3B
:1068200004E04FF480610B48FEF7E7FA0848007A6D
:1068300010F0020F05D04FF480710748FEF7DFFA21
:1068400004E04FF480710448FEF7D7FA10BD000051
:106850004A9A0020000C01400018014010B500F0D9
:1068600001F810BD0CB50020019000904048006870
:1068700040F480303E49086000BF3D48006800F4A5
:10688000003000900198401C0190009818B90198C0
:10689000B0F5A06FF1D13648006810F4003F02D087
:1068A0000120009001E000200090009801285BD1B9
:1068B0003048006840F010002E4908600846006823
:1068C00020F0030008600846006840F002000860FD
:1068D000274840682649486008464068486008469E
:1068E000406840F4806048600846C06A2249084019
:1068F0001F49C8620846C06A204908431C49C8624B
:106900000846006840F08060086000BF18480068D2
:1069100010F0006FFAD01648406820F47C1014493B
:1069200048600846406840F4E8104860084600683F
:1069300040F08070086000BF0D48006810F0007FD4
:10694000FAD00B48406820F0030009494860084627
:10695000406840F00200486000BF0548406800F011
:106960000C000828F9D101E000BFFEE70CBD0000D3
:10697000001002400020024000F0FEFF440601002B
:10698000704700000021014A11707047410000204B
:1069900010B5044620780849087060784870A078DF
:1069A0008870E078C8702079087160794871214654
:1069B0000020FDF7C5FD10BDA000002010B500F0BF
:1069C000C5FB10BD10B51448006840F00100124925
:1069D000086008464068114908400F494860084669
:1069E00000680F4908400C4908600846006820F418
:1069F000802008600846406820F4FE004860084691
:106A0000006820F0A05008604FF47F0088600020EC
:106A1000C862FFF723FF10BD001002400000FFF026
:106A2000FFFFF6FE10B586B0FFF7CCFF01214FF453
:106A3000E030FEF72BFF012144F27D00FEF766FFF8
:106A400001211648FEF742FFFEF73FFEFDF7EEFF7D
:106A5000FDF70CFF01A8FEF779FF4FF47A7101985A
:106A6000B0FBF1F4B4F1807F00D311E024F07F405B
:106A7000401E4FF0E02148610F214FF0FF30FEF73C
:106A8000BDFE00204FF0E02188610720086100BFB3
:106A90000521881FFEF7B2FE06B010BD07802A2030
:106AA00038B5214890F8570004021F4890F8580064
:106AB000204484B21C4890F89C0005021A4890F8C3
:106AC0009D00284485B208F0BDF9184908600846C1
:106AD000006810B90420164908601448006810B313
:106AE000224614491148006807F0CAF90E4991F886
:106AF00098100A060C4991F8991042EA01420A4995
:106B000091F89A1042EA0121074A92F89B2041EA43
:106B1000020002F0B3FC0090074B2A466946034886
:106B2000006807F035FB38BD4A9A00208C00002031
:106B300014000020480E010879DF000870B50546F2
:106B40000E461446A2B201233146284609F0C8FD7C
:106B500070BD000010B50121084800F095F858B14B
:106B60000121064800F011F80548006820B10448EA
:106B70000068401E0249086010BD0000000400408B
:106B80002C000020CA4302827047CA430282704729
:106B900021B1028842F00102028004E0028840F242
:106BA000FE331A400280704710B504462F488442D5
:106BB00008D10121C014FEF7B9FE0021E014FEF750
:106BC000B5FE52E0B4F1804F08D101210846FEF72E
:106BD0008DFE00210120FEF789FE46E02448844214
:106BE00008D101210220FEF781FE00210220FEF7DC
:106BF0007DFE3AE01F48844208D101210420FEF7BF
:106C000075FE00210420FEF771FE2EE01A48844232
:106C100008D101210820FEF769FE00210820FEF7B7
:106C200065FE22E01548844208D101211020FEF7BC
:106C30005DFE00211020FEF759FE16E01048844248
:106C400008D101212020FEF751FE00212020FEF76F
:106C50004DFE0AE00B48844207D101214014FEF7A3
:106C600065FE00216014FEF761FE10BD002C01409E
:106C70000004004000080040000C004000100040EC
:106C8000001400400034014030B5024600200023CB
:106C90000024158A05EA0103958905EA010413B168
:106CA0000CB1012000E0002030BD1AB183890B43F4
:106CB000838102E083898B4383817047028802F0DD
:106CC0008F020280CA884B881A4303881A430280C5
:106CD0008A8882850A880285054A904202D0054A40
:106CE000904201D10A7A0286012282827047000016
:106CF000002C0140003401402DE9F04704460F46C6
:106D00009046002292463D463E46697895F80290AC
:106D1000B9F1EB0F7AD025DCB9F1E30F72D017DCB3
:106D2000B9F1DE0F4BD009DCB9F1040F6BD0B9F12A
:106D3000050F69D0B9F10A0F67D1C9E1B9F1DF0FC9
:106D400022D0B9F1E00F7BD0B9F1E20FF4D127E105
:106D5000A9F1E400072858D2DFE800F0F7E157CCAA
:106D6000B7A18B00A9F1EC001428F4D2DFE800F001
:106D700033260B0A4D4DF6F5F4F3F24D4D4D4DF122
:106D80004DF0EFEEB3E100BF012C0BD1F379D81D2C
:106D9000C31700EB5373DA10D01D88420DD04FF0AB
:106DA000200A0AE0AB79D81DC31700EB5373DA1041
:106DB000901D884201D04FF0200A98E100BF012CBD
:106DC00004D1052906D04FF0200A03E0042901D0A0
:106DD0004FF0200A8BE1012C09D130794006020ED8
:106DE00002F10B0088420BD04FF0200A08E0E8784F
:106DF0004006020E02F10A00884201D04FF0200A3C
:106E000075E103E0B7E064E164E164E1012C18D1CD
:106E10003079012303EB400000F0FF0C301D0CF132
:106E20000203C05C40064FEA106C30790CEB400066
:106E3000C2B202F10B0088421AD04FF0200A17E0CC
:106E4000C2E0E878012303EB400000F0FF0CE81CEF
:106E50000CF10203C05C40064FEA106CE8780CEBC2
:106E60004000C2B202F10A00884201D04FF0200A6D
:106E70003DE1012C09D130794006020E02F10A00F1
:106E800088420BD04FF0200A08E0E8784006020E56
:106E900002F10900884201D04FF0200A27E1012CBD
:106EA00009D130794006020E02F10A0088420BD067
:106EB0004FF0200A08E0E8784006020E02F10900CF
:106EC000884201D04FF0200A11E1012C09D130791C
:106ED0004006020E02F1080088420AD04FF0200A54
:106EE00007E0E8784006020ED01D884201D04FF03E
:106EF000200AFCE0012C09D130794006020E02F193
:106F0000080088420AD04FF0200A07E0E8784006DF
:106F1000020ED01D884201D04FF0200AE7E0012C7C
:106F200009D130794006020E02F1090088420BD0E7
:106F30004FF0200A08E0E8784006020E02F108004F
:106F4000884201D04FF0200AD1E008E048E053E049
:106F50005EE069E074E07FE090E09BE0A6E0012C59
:106F600004D1032906D04FF0200A03E0022901D002
:106F70004FF0200ABBE0012C09D130794006020E07
:106F800002F1080088420AD04FF0200A07E0E878B2
:106F90004006020ED01D884201D04FF0200AA6E024
:106FA000012C08D130794006020ED01D88420AD04B
:106FB0004FF0200A07E0E8784006020E901D884254
:106FC00001D04FF0200A92E0012C04D1062906D00E
:106FD0004FF0200A03E0052901D04FF0200A86E097
:106FE000012C04D1032906D04FF0200A03E0022926
:106FF00001D04FF0200A7AE0012C04D1032906D0F9
:107000004FF0200A03E0022901D04FF0200A6EE081
:10701000012C04D1052906D04FF0200A03E00429F1
:1070200001D04FF0200A62E0012C04D10E2906D0D5
:107030004FF0200A03E00D2901D04FF0200A56E05E
:10704000012C04D10D2906D04FF0200A03E00C29B1
:1070500001D04FF0200A4AE0012C07D1727B02F1E7
:107060000D00884209D04FF0200A06E02A7B02F189
:107070000C00884201D04FF0200A38E0012C04D1E6
:107080000C2906D04FF0200A03E00B2901D04FF065
:10709000200A2CE0012C04D10C2906D04FF0200A44
:1070A00003E00B2901D04FF0200A20E0012C07D18A
:1070B000727B02F10D00884209D04FF0200A06E0F1
:1070C0002A7B02F10C00884201D04FF0200A0EE02A
:1070D00000BF00BF0BE0012C04D1032906D04FF004
:1070E000200A03E0022901D04FF0200A00BF00BFB0
:1070F0005046BDE8F087000010B5114809F06CFB60
:10710000E8B14FF496710E4809F06DFB0D48006828
:10711000007C04280AD00B480068007C18B109489C
:10712000006806F047FFFFF7BBFC08E00648007860
:1071300028B90448006806F03DFFFFF7B1FC10BD18
:10714000FBAC00208C0000209000002010B505F062
:107150007FFEA0480068401C9E4908609E48006869
:107160000A309D4908609D48006820B19B4800682E
:10717000401E9A49086098480068FEF7C7F9984889
:107180000068401C9649086008460068092874D9C0
:1071900005F04EFBFFF734F892480068401C914917
:1071A000086000208E4908608F48007810B38F482F
:1071B0000078401C8D4908700846007802280DDAD6
:1071C0008B4890F8520020B14FF480518948FDF768
:1071D00016FE04218748FDF710FE15E0834800786D
:1071E000022808DD80480078401E7F490870002092
:1071F0007E49087008E04FF480517E48FDF7FDFDA0
:1072000004217C48FDF7FBFD76480068502804D235
:1072100008217848FDF7F3FD1DE072480068532807
:1072200004D208217348FDF7E8FD14E06D480068BA
:10723000622804D208216F48FDF7E1FD0BE06948A0
:107240000068652804D208216A48FDF7D6FD02E0EF
:10725000002064490860684890F80801A8B16648B1
:1072600090F8090188B96448D0F80A01012805D1CD
:107270000121614880F8091107E0A9E05E48D0F8D3
:107280000A01401E5C49C1F80A015C4890F80801F7
:10729000A0B15A4890F8090180B95848D0F80A01BD
:1072A000012804D10121554880F8091106E053480E
:1072B000D0F80A01401E5149C1F80A01504890F81F
:1072C0000701A0B14E4890F8080180B94C48D0F8A9
:1072D0000901012804D10121494880F8081106E07C
:1072E0004748D0F80901401E4549C1F80901454801
:1072F000007888B14348407870B94248D0F802001D
:10730000012802D13F49487006E03E48D0F802000B
:10731000401E3C49C1F802003B48007888B13A4819
:10732000407870B93848D0F80200012802D13649B7
:10733000487006E03448D0F80200401E3249C1F8D7
:107340000200324890F80801A0B1304890F80901D5
:1073500080B92E48D0F80A01012804D101212B4818
:1073600080F8091106E02948D0F80A01401E274993
:10737000C1F80A01254890F80F0180B92348D0F8D8
:107380001001012804D10121204880F80F1106E0E6
:107390001E48D0F81001401E1C49C1F810011C48BD
:1073A00090F80701A0B11A4890F8080180B9184870
:1073B000D0F80901012804D10121154880F80811ED
:1073C00006E01348D0F80901401E1149C1F809012F
:1073D00010BD0000840000200000002030000020CC
:1073E0000C000020080000201000002011000020E8
:1073F0004A9A0020001801404C9C0020D2A1002095
:107400005A9D0020350000203B000020E0A2002013
:10741000F4AB0020FF2900D370470AE000BF084A00
:10742000128812F0800FFAD010F8012B044B1B1DAC
:107430001A800A00A1F10101F0D100BFECE70000C1
:10744000004C004010B540F225513A4800F0DAF9FE
:1074500000286ED0374800F075FAC4B2364800787C
:10746000002866D13448D0F8000190B9A02C10D182
:107470003148D0F80021D0F80001401C2E49C1F855
:107480000001481C8454322100F2071009F0ABF9C6
:107490004FE02948D0F8000100284AD02648D0F80B
:1074A0000001FF280AD900212348C0F80011C0F8C4
:1074B000041100F5847009F09DF93AE01E48D0F8F7
:1074C0000011401C4454401ED0F8001180788142C5
:1074D00028D91948D0F80001401C1749C1F8040107
:1074E00000211548C0F8001100F5847009F082F9F8
:1074F0001148D0F80401042804D30F48D0F804013F
:10750000FF2805D94FF48A710B48FBF7F0FE10E015
:10751000012009490870084690F80411401C00F049
:1075200027FB06E00448D0F80001401C0249C1F8DE
:10753000000110BD004C0040E0A200202DE9FC41FC
:1075400080460D4614461E46089FA4B362891B4818
:107550006168FBF787FE60891849C1F80301084696
:10756000D0F8030104281ED30846D0F80301FF28F1
:1075700019D80846D0F80321022004F0A5FBFF2803
:1075800011D00E484078801C0C49C1F80301084610
:10759000D0F80301009030680B463A46014601904E
:1075A000284600F039F840F207110448FBF79FFE27
:1075B000204604F040FABDE8FC8100005A9D0020FE
:1075C00010B5104890F8570004020E4890F8580083
:1075D000204484B209F01AFA0B4908600846006892
:1075E00010B9042009490860224609490648006884
:1075F00009F004F9002207490348006809F014FA69
:1076000010BD00004A9A00205C00002014000020F9
:10761000480E01083D7500082DE9FF4180461546DA
:107620001E460A9FB9B20022104604F003F8044631
:107630006CB13A4631466068FBF714FE2B4601AA4E
:107640002146404609F0F3F9204604F0F4F9BDE87C
:10765000FF81000010B540F225512F4800F0D2F80C
:10766000002857D02C4800F06DF9C4B22B480078A0
:1076700000284FD12948D0F8000190B9402C10D1F2
:107680002648D0F80021D0F80001401C2349C1F859
:107690000001481C8454322100F2071009F0A3F8BD
:1076A00038E01E48D0F8000160B31C48D0F8000153
:1076B000FF280AD900211948C0F80011C0F80411A8
:1076C00000F5847009F096F824E01448D0F8001111
:1076D000401C4454401ED0F800118078814212D9D9
:1076E0000E48D0F80001401C0C49C1F804010021EB
:1076F0000A48C0F8001101200849087001F584709B
:1077000009F078F806E00548D0F80001401C03496C
:10771000C1F8000110BD000000380140D2A10020D6
:1077200010B540F225512F4800F06CF8002857D0D2
:107730002C4800F007F9C4B22B48007800284FD13C
:107740002948D0F8000190B9402C10D12648D0F833
:107750000021D0F80001401C2349C1F80001481C59
:107760008454322100F2071009F03DF838E01E4839
:10777000D0F8000160B31C48D0F80001FF280AD9F6
:1077800000211948C0F80011C0F8041100F58470F8
:1077900009F030F824E01448D0F80011401C44549B
:1077A000401ED0F800118078814212D90E48D0F8DE
:1077B0000001401C0C49C1F8040100210A48C0F82E
:1077C000001101200849087001F5847009F012F8D1
:1077D00006E00548D0F80001401C0349C1F800014B
:1077E00010BD0000004400404C9C002021B1828963
:1077F00042F40052828104E082894DF6FF731A4000
:107800008281704770B502460024002300250020C5
:10781000A1F510666A3E00D100BFC1F3421501F028
:107820001F03012606FA03F3012D02D19689334086
:1078300006E0022D02D1168A334001E0968A3340D9
:107840000C12012606FA04F41688344013B10CB168
:10785000012000E0002070BDF0B5034600240026A2
:1078600000250020A1F510676A3F00D100BF18462F
:10787000C1F3421401F01F06012707FA06F5012C97
:1078800001D10C3004E0022C01D1103000E01430A2
:107890001AB107682F43076002E00768AF4307602B
:1078A000F0BD00002DE9F04786B005460E460024E5
:1078B000A24600BF00BF0027B08900B100BF2F461D
:1078C0002C8A4CF6FF700440F08804432C82AC896B
:1078D0004EF6F3100440B08831890843718908439B
:1078E0000443AC81AC8A4FF6FF400440B0890443A6
:1078F000AC8201A8FEF72AF81148874202D1DDF8D0
:1079000010A001E0DDF80CA00AEBCA0000EB0A10A1
:1079100031688900B0FBF1F86420B8FBF0F0040195
:107920002009642101FB1089322000EB0910B0FB13
:10793000F1F000F00F0004432C8106B0BDE8F087A1
:107940000038014001468888C0F3080070470000F5
:107950001CB51E4808F040FF002835D04FF4967142
:107960001A4808F040FFF0201949087012204870AA
:1079700000208870C91C1748C2680A60008A888085
:10798000881D14490A390A6802604A6842600989F8
:10799000018114200E49C1F8030113210C48FEF7A0
:1079A00023FE0B49C8744FF0FF3001F067FD0190D2
:1079B0000748D0F80301064B41F25C1200900648DC
:1079C00001990068FFF728FE1CBD0000619E0020A1
:1079D0005A9D0020919A00205C000020704700BF53
:1079E000FEE710B545F25550FDF7D4FB0320FDF737
:1079F000C5FB40F2E240FDF7C7FBFDF7B7FBFDF723
:107A0000ADFB10BD2DE9F04705462F46A9461548A8
:107A10000078012802D109F1040400E0FC1C214691
:107A2000B22000F033FD0646BEB9DFF83C8098F87E
:107A3000010004280DDD01200C490870607A0C4912
:107A400008700846027804F10A012046FBF70AFC98
:107A500006E0FF200649087002E0FF200449087094
:107A6000BDE8F08788000020E1A20020100000207F
:107A7000410000202DE9F04705462F46A94615484C
:107A80000078012802D109F1040400E0FC1C214621
:107A9000B22000F0FBFC0646BEB9DFF83C8098F847
:107AA000010004280DDD01200C490870607A0C49A2
:107AB00008700846027804F10A012046FBF7D2FB61
:107AC00006E0FF200649087002E0FF200449087024
:107AD000BDE8F08788000020E1A20020100000200F
:107AE00041000020704700002DE9F0470446A04601
:107AF000A14612480078012802D109F1040701E0EB
:107B000008F103073946B32000F0C0FC06467EB9F1
:107B10000B4D6878042807DD01200A4908706E794A
:107B200000200949087006E0FF200749087002E0BC
:107B3000FF2005490870BDE8F0870000880000209C
:107B4000E1A200201000002041000020704730B565
:107B500003460C46002106E0585C655CA84201D053
:107B6000002030BD491C9142F6DB0120F9E70000FE
:107B70002DE9F04106460F463446E07892287DD044
:107B800008DC70280DD0812812D08A2877D091285F
:107B90000DD124E1932873D0942872D0B028F7D166
:107BA000D4E10520FE4908600020FE49087098E2F3
:107BB0006078042866DD6078801F211D085C451010
:107BC000062D5FD10120F8490870F8480068C0EB25
:107BD000C00101EB4010F6490D5463789B1FA3EBE5
:107BE000450C231D0CEB03016A00F04B1B68C3EB33
:107BF000C30C0CEB4313DFF8B8C36344581CFBF70A
:107C000031FB6078401F211D085C00F00300401C20
:107C1000E6490968C1EBC10202EB4111E44A114493
:107C200081F82500E348007BE0490968C1EBC10207
:107C300002EB4111DE4A1144C877DE48407BDB4944
:107C40000968C1EBC10202EB4111D94A114481F824
:107C50002000D848807BD5490968C1EBC10202EBFE
:107C60004111D34A114481F82100D248007BCF4909
:107C70000968C1EBC10202EB411104E063E13BE0A2
:107C800062E162E137E0CA4A114481F82200C94842
:107C9000407BC6490968C1EBC10202EB4111C44AED
:107CA000114481F82300C348807BC0490968C1EBB7
:107CB000C10202EB4111BE4A114481F82400BB48C5
:107CC0000068401CB949086008460068B0F5FA7FB2
:107CD00006D94FF4FA700860B7480068B7490860E1
:107CE000B44890F84C0030B9B24890F8A60010B1F2
:107CF0000120B3490870F4E16078052800D1F0E173
:107D00006078C01FC0F3470560780A281BD120792E
:107D1000AA4908600846006800020860607909689E
:107D20000843A64908600846006800020860A07978
:107D300009680843A149086008460068F0BB4FF095
:107D4000FF3008604AE06078042847DD0F2D45DCED
:107D500095480078401C9449087094480068C0EB2E
:107D6000C00101EB401092490D546A008F49096827
:107D7000C1EBC10303EB41118D4B1944481CE11DBC
:107D8000FBF770FA207900F00300401C874909686E
:107D9000C1EBC10202EB4111854A114481F8250073
:107DA000032000EB4501201D405C80490968C1EBC0
:107DB000C10202EB41117E4A114400E00EE081F85D
:107DC00026007A480068401C784908600846006828
:107DD000B0F5FA7F02D94FF4FA70086081E160785B
:107DE00004287DDDA0790221C1EB6000C5B20F2D12
:107DF00077DC6806010E04F10900FDF713FC00288A
:107E00006FD069480078401C67490870674800686F
:107E1000C0EBC00101EB401065490D546A00634995
:107E20000968C1EBC10303EB4111614B1944481CC4
:107E300004F10901FBF716FA62480078401C5B491F
:107E40000968C1EBC10202EB4111594A114481F8A2
:107E50002500A079C01C211D085C54490968C1EBAC
:107E6000C10202EB4111524A114481F826005148E7
:107E7000007B4E490968C1EBC10202EB41114C4A3B
:107E80001144C8774B48407B48490968C1EBC1029F
:107E900002EB4111464A114481F820004548807B9D
:107EA00042490968C1EBC10202EB4111404A114449
:107EB00081F821003F48007B3C490968C1EBC102C1
:107EC00002EB41113A4A114481F822003948407BC3
:107ED00036490968C1EBC10202EB4111344A01E0A5
:107EE00030E02AE0114481F823003248807B2F499A
:107EF0000968C1EBC10202EB41112D4A114481F81E
:107F000024002A480068401C284908600846006888
:107F1000B0F5FA7F06D94FF4FA7008602648006879
:107F200026490860234890F84C0030B9214890F861
:107F3000A60010B101202249087020480068401CAA
:107F40001E490860CDE0CCE0CBE0CAE060780528AF
:107F50007EDD601DFDF700FB00287AD01248007816
:107F6000401C11490870042010490968C1EBC10286
:107F700002EB41110E4A50540C480068C0EBC0019E
:107F800001EB401011460144D4F8052041F8012FBF
:107F9000D4F8090048602079401C0449096813E0BE
:107FA00014000020E0A20020100000201800002093
:107FB000480100204A9A00206C0000207000002038
:107FC000600000208A000020C1EBC10202EB4111D9
:107FD000454A114481F82500002044490968C1EB55
:107FE000C10202EB4111404A114481F82600404889
:107FF000007B3E490968C1EBC10202EB41113A4ADC
:108000001144C8773A48407B38490968C1EBC1023E
:1080100002EB4111344A114481F820003448807B3E
:1080200032490968C1EBC10202EB41112E4A1144E9
:1080300081F821002E48007B2C490968C1EBC10260
:1080400002EB4111284A114481F82200284801E03E
:1080500039E032E0407B25490968C1EBC10202EBFF
:108060004111214A114481F823002148807B1F4996
:108070000968C1EBC10202EB41111B4A114481F8AE
:1080800024001A480068401C184908600846006827
:10809000B0F5FA7F06D94FF4FA7008601548006809
:1080A00015490860124890F84C0030B9104890F813
:1080B000A60010B10120114908700F480068401C4B
:1080C0000D4908600CE06078052803D16079094902
:1080D000086005E06078042802D1002005490860A6
:1080E00000BF00BFBDE8F08148010020180000205B
:1080F0004A9A00206C0000207000002060000020E0
:1081000070B50025D221D348FBF7F1F80820D149FA
:1081100081F847001921CF4880F84810072180F8DE
:1081200049103B2180F84A10302180F84B10002183
:1081300080F84C10012180F84D100A2180F84E1073
:10814000042180F84F10002180F85010012180F8A0
:10815000511080F85210C02180F85310A82180F8E7
:108160005410002180F85510642180F85610072122
:1081700080F85710B12180F85810FF2180F859106D
:1081800080F85A1080F85B10002180F85C10C02144
:1081900080F85D10A82180F85E10002180F85F1043
:1081A000012180F8601080F86110022180F86210CF
:1081B000032180F86310042180F86410052180F801
:1081C0006510062180F866100020A24981F887001A
:1081D0000121A04880F8881080F88910022180F8D9
:1081E0008A10012180F88B1080F88C10002180F813
:1081F0008D10032180F88E10282180F88F10C8215F
:1082000080F89010002180F8911080F89210782169
:1082100080F89310002180F8941080F895100121C7
:1082200080F89610002180F89710C02180F89810EF
:10823000A82180F89910002180F89A103D2180F83B
:108240009B10132180F89C10882180F89D104FF41A
:108250007A71A0F8A010002180F8A41080F8A61070
:1082600080F8A2107C4800787A4908717A484178F1
:108270007848417178488178764881717648C1782C
:108280007448C17100207349087281F8320081F886
:10829000330081F8340081F8350081F83600012080
:1082A00081F83700002404E06A483D30005D054451
:1082B000641C0A2CF8D3FDB93120664981F83D00D1
:1082C0003221644880F83E10332180F83F10342179
:1082D00080F84010352180F84110362180F8421096
:1082E000372180F84310382180F84410392180F874
:1082F0004510302180F846100820564981F8670063
:108300001921544880F86810072180F869103B2132
:1083100080F86A10302180F86B10002180F86C1012
:10832000012180F86D100A2180F86E10042180F878
:108330006F10002180F87010012180F8711080F812
:108340007210C02180F87310A82180F874100021E9
:1083500080F87510642180F87610072180F8771076
:10836000B12180F87810FF2180F8791080F87A1018
:1083700080F87B10002180F87C10C02180F87D10EF
:10838000A82180F87E10002180F87F10012180F85C
:10839000801080F88110022180F88210032180F87B
:1083A0008310042180F88410052180F885100621AF
:1083B00080F886100020274981F8A7000121254870
:1083C00080F8A81080F8A910022180F8AA100121D5
:1083D00080F8AB1080F8AC10002180F8AD100321BC
:1083E00080F8AE10282180F8AF10C82180F8B010B6
:1083F000002180F8B11080F8B210782180F8B31015
:10840000002180F8B41080F8B510012180F8B61072
:10841000002180F8B710C02180F8B810A82180F89A
:10842000B910002180F8BA103D2180F8BB1013214B
:1084300080F8BC10882180F8BD104FF47A71A0F844
:10844000C010002180F8C41080F8C61080F8C21057
:1084500070BD00004A9A00200400002008B50020EA
:108460000090FF20009002E00098401E00900098CD
:108470000028F9D108BD0E2290FBF2F2D11E00BFF8
:108480000A00A1F10101FBD1704700002DE9F04184
:1084900006460C46A020F9494870FF21F748C170F4
:1084A000C52E02D1852101710DE0C22E03D182219A
:1084B000F248017107E0C12E03D18121EF4801711B
:1084C00001E0EE48067130468A2E2AD010DCA0F179
:1084D0007200152870D2DFE800F0556F596F7A6F7F
:1084E000846F6F6F6F6F6F6FB5BBDFFEFDFCFB00BE
:1084F000B42872D00CDCB12870D004DC91286ED086
:10850000B02859D100E2B2286AD0B328F9D123E2C9
:10851000B52876D0C12875D0C22874D0C528F0D12E
:10852000A6E10D21D5488170042500271CE001201B
:10853000B840D3490978084206D02846691CCDB214
:10854000CE49491C0F5406E064222846691CCDB26E
:10855000CA49491C0A5401222846691CCDB2C749A0
:10856000491C0A54781CC7B2042FE0DB00222846BD
:10857000691CCDB2C149491C0A540121BF48401CA5
:10858000415510E20321BD4881700CE20421BB4833
:108590008170257800214171012D01D1417115E0D3
:1085A000022D03D10121B54841710FE0042D04D102
:1085B0000221B248417109E0F2E1082D03D1032103
:1085C000AE48417102E00021AC484171EBE1042169
:1085D000AA48817021784171E5E1C9E198E18FE114
:1085E000A4E12078A74981F83700084690F83700C1
:1085F000012809D0022808D0032807D004281FD159
:108600000EE0C1E16DE13FE100BF00BF06219B48E4
:1086100081702178417161788171A178C1710FE019
:108620000921964881702178417161788171A17822
:10863000C171E1780172217941726179817200BF63
:1086400000BFB0E104218D48817021784171AAE119
:108650000A218A4881702078012101EB4000C5B2CF
:10866000615D86484171681C215C84488171A81C49
:10867000215C8248C171E81C215C80480172281D80
:10868000215C7E484172681D215C7C488172A81D76
:10869000215C7A48C17286E12078032101EB400019
:1086A000C5B2605D0A2101EB4000C1B27348817020
:1086B000605D05EB4000401C215C70484171605DCD
:1086C00005EB4000801C215C6C488171605D03E01B
:1086D000CAE0B9E0A0E03FE005EB4000C01C215C2F
:1086E0006648C171605D05EB4000001D215C634878
:1086F0000172A81E215C61484172407A01281CD198
:108700005E488078801CC1B25C4881700121817212
:10871000605D401CC1B25948C172605DC006010E67
:108720005648017300214173605D4200681C2118A6
:1087300052480E30FAF796FD0DE0681E215C4F4856
:108740008172615DC172605D4200681C21184B48F6
:108750000C30FAF787FD26E12078012101EB40007B
:10876000C5B2092145488170A81C215C434841716C
:10877000E81C215C41488171281D215C3F48C17182
:10878000681D215C3D480172605DC0F10500C1B209
:108790003A484172681C215C38488172807A18B965
:1087A00000213648817236E03448807A012803D1AE
:1087B0000221324881722EE03048807A022803D1AB
:1087C00001212E48817226E02C48807A032803D1AB
:1087D00003212A4881721EE02848807A042803D1A8
:1087E00000212648817216E02448807A052803D1AA
:1087F0000221224881720EE02048807A062803D1A7
:1088000001211E48817206E01C48807A072802D1A7
:1088100003211A488172C6E0072118488170207828
:10882000012101EB4000C5B2615D14484171681C33
:10883000215C12488171A81C215C1048C171E81CA0
:10884000215C0E480172AEE020784006050E681DDE
:10885000C1B20A4881700021417185712A46611CAC
:10886000C01DFAF7FFFC9EE00321044881709AE0E6
:108870000421024881700121417194E0E0A20020AE
:10888000420000204A9A002020784006050E05F19B
:108890000C00C1B28B488170681C215C8948417111
:1088A000A81C215C87488171E81C215C8548C17146
:1088B000281D215C83480172012141728172207858
:1088C000401CC1B27F48C1722078C006010E7D48AD
:1088D0000173002141732A46611C0E30FAF7C2FC75
:1088E00061E00A2177488170217841716178817156
:1088F000A178C1710021017241728172C17252E08E
:108900000321704881704EE003216E4881704AE077
:108910000D216C488170401C216841606168816054
:10892000217A401E4173617A81733CE0607A0D3098
:10893000C1B264488170401C2168416061688160F7
:10894000217A401E4173617A8173627A04F10A01CF
:108950000F30FAF787FC26E00C215A488170401C42
:108960002168416061688160217A401E41731AE08C
:108970000C2154488170401C21684160616881600D
:10898000217A401E41730EE00C214E488170401C3C
:108990002168416061688160217A401E417302E074
:1089A000FF20BDE8F08100BF46488078401CC5B27A
:1089B00029464448401CFDF717FE4249491C4855CA
:1089C0000020491E0870691C3E48401CFEF722FD2D
:1089D000912E03D0B02E01D0802E05D14FF47A71A4
:1089E000394807F000FF03E0C821374807F0FBFED5
:1089F00047E03448007878B3002032490870912E5F
:108A000010D13248006832490968884204D32E48A0
:108A100007F0F0FE0020C4E74FF47A712A4807F00F
:108A2000E2FE2EE0B02E18D12848006828490968D7
:108A3000884202D22648006848B9234807F0DAFE87
:108A40002348006808B90120ABE70020A9E74FF4EC
:108A50007A711D4807F0C7FE13E08A2E0CD11B481F
:108A6000006820B1184807F0C5FE002099E7C8212A
:108A7000154807F0B8FE04E0134807F0BBFE0020DD
:108A80008FE7114807F0A8FE0028B2D00E4807F083
:108A9000B1FE912E04D10F48006808B1002080E794
:108AA000B02E04D10B48006808B1002079E78A2E67
:108AB00001D1002075E74FF48A710248FAF717FCDC
:108AC000FF206EE7E0A20020EEA30020700000204F
:108AD0006C000020180000202DE9FC47064688465F
